:020000020000FC
:0200000033C00B
:0200040060C0DA
:10006800F8942FEF2DBF28E02EBF31E080E0002765
:1000780008E204B9209821982298249A24E125B905
:1000880024E02BB928E02AB921E02DBB22E02093F7
:10009800690023E22093B00029E02093B10028EC06
:1000A8002093B3004EE1242F2093B40023E025BD14
:1000B80021E025BB78940000813041F0FCCF2FE38C
:1000C8002F93F89481E021E0322725C0F89480E04E
:1000D800313079F0303019F078940C945F002C9816
:1000E80020E02093B400222720E020936B0078942E
:1000F800E2CF2C9A23E020936B00423302D078940D
:10010800DACF28EC2093B4000000000000004093F0
:0E011800B400789408952F912FBF7894189515
:00000001FF
