:020000020000FC
:100000004443203D200046616E203D200000202515
:10001000200000C023E025BD21E025BB21E0209386
:100020006E0030D02D9A85E0E0E0F0E019D083E05A
:10003000EEE0F0E015D005D086E0E6E0F0E010D08C
:10004000FFCF2D981CE018B9000017D071D070D0E8
:1000500010E018B9000011D06BD06AD02D9A089525
:10006000C895029408B809D063D0029408B805D0A6
:100070005FD031968A95A1F708952B9A59D058D020
:100080002B9808950FEF04B90FEF07B905E64CD090
:1000900013E018B9F2DF05E047D018B9EEDF01E050
:1000A00043D018B9EADF06E03FD012E018B90000EB
:1000B000E4DF06E039D012E018B90000DEDF38D006
:1000C00037D018E018B90000D8DF32D031D010E0B6
:1000D00018B90000D2DF2CD02BD018E018B90000DE
:1000E000CCDF26D025D010E018B90000C6DF20D024
:1000F0001FD011E018B90000C0DF1AD019D010E0ED
:1001000018B90000BADF14D016E018B90000B5DF46
:100110000FD010E018B90000B0DF0AD01CE018B909
:100120000000ABDF05D0089503D00A95E9F70895E4
:100130002F9326E026BD222726B52030E9F72F9100
:02014000089520
:00000001FF
