:020000020000FC
:0200000031C00D
:0200040068C0D2
:02000C0071C0C1
:1000400051C010C04443203D200046616E203D2039
:100050004F4E2000000046616E203D204F46460076
:1000600020252000F8942FEF2DBF28E02EBF30E090
:1000700080E0002708E204B9209821982298249A69
:100080002CE125B924E02BB928E02AB921E02DBBC9
:1000900022E02093690021E02093680023E0209370
:1000A0006B0023E22093B00029E02093B10028ECFC
:1000B0002093B3004CE9242F2093B40023E025BD06
:1000C000B1D0789467D071D080FD34C081FD1EC05E
:1000D00082FD26C0F9CF2FE32F93F89481E021E031
:1000E000322754C02FE32F93F89421E025BB4EC054
:1000F000F89463E06370162B110F110F93959430F1
:1001000009F044C017FF8260846040C020E0209363
:100110006B0025E0420F80E023E020936B00D4CFFA
:1001200020E020936B0025E0421B80E023E0209339
:100130006B00CACFF89480E0313099F0303019F07C
:1001400078940C9464002C9820E0F42E4EE134D086
:10015000BBD02093B400222720E020936B0078943A
:10016000B3CF2C9A23E020936B004F2DADD01DD040
:10017000423302D07894A8CF28EC2093B40000003A
:10018000000000004093B400789408952F912FBF91
:10019000789418952D9A85E0E4E4F0E031D094D07D
:1001A00083E0E0E6F0E02CD008951BD089E0EAE49B
:1001B000F0E026D008D0089514D089E0E6E5F0E01C
:1001C0001FD001D008952D9810E018B9000025D057
:1001D000F8D0F7D012E018B900001FD0F2D0F1D05B
:1001E00008952D981CE018B9000017D0EAD0E9D086
:1001F00010E018B9000011D0E4D0E3D02D9A089592
:10020000C895029408B809D0DCD0029408B805D08B
:10021000D8D031968A95A1F708952B9AD2D0D1D013
:100220002B98089508E204B90FEF07B905E6BED090
:1002300013E018B9F2DF05E0B9D018B9EEDF01E03C
:10024000B5D018B9EADF06E0B1D012E018B9000065
:10025000E4DF06E0ABD012E018B90000DEDFB1D079
:10026000B0D018E018B90000D8DFABD0AAD010E0A9
:1002700018B90000D2DFA5D0A4D018E018B900004A
:10028000CCDF9FD09ED010E018B90000C6DF99D017
:1002900098D011E018B90000C0DF93D092D010E0E0
:1002A00018B90000BADF8DD016E018B90000B5DF2C
:1002B00088D010E018B90000B0DF83D01CE018B976
:1002C0000000ABDF7ED00895B42FC2E02CD0B4364E
:1002D00071F0D0E0D0930601CAE025D0D0E3AD0F95
:1002E000A093050120D0AD0FA09304010EC0D0E073
:1002F000D093030120E3209302012093010121E325
:1003000020930001E0E0F1E003C0E4E0F1E000C090
:100310000190002039F0029408B87FDF029408B8F9
:100320007CDFF6CF0895AA1BBB1FAA1FAC1B18F4D5
:10033000AC0F889401C00894BB1FAA1FAC1B18F413
:10034000AC0F889401C00894BB1FAA1FAC1B18F403
:10035000AC0F889401C00894BB1FAA1FAC1B18F4F3
:10036000AC0F889401C00894BB1FAA1FAC1B18F4E3
:10037000AC0F889401C00894BB1FAA1FAC1B18F4D3
:10038000AC0F889401C00894BB1FAA1FAC1B18F4C3
:10039000AC0F889401C00894BB1FAA1FAC1B18F4B3
:1003A000AC0F889401C00894BB1F089521E02093EE
:1003B0006E000A9506D00030E1F720E020936E0031
:1003C00008952F9326E026BD21E020936E00A89B80
:1003D000FECF21E025BB20E020936E002F910895F1
:00000001FF
