:020000020000FC
:0200000031C00D
:020004006AC0D0
:02000C0073C0BF
:1000400053C010C04443203D200046616E203D2037
:100050004F4E2000000046616E203D204F46460076
:1000600020252000F8942FEF2DBF28E02EBF30E090
:1000700080E0FF2453E0002708E204B9209821988B
:100080002298249A2CE125B924E02BB928E02AB93A
:1000900022E02093690021E02DBB21E0209368003D
:1000A00023E020936B0023E22093B00029E020930B
:1000B000B10028EC2093B30040EA242F2093B40031
:1000C00023E025BDE4D067D086D0789480FD42C07F
:1000D00081FD26C082FD31C0F9CF2FE32F93F89424
:1000E00081E021E0322753C02FE32F93F89421E0E1
:1000F00025BB4DC02FE32F93F89463B163709395A4
:10010000913029F0943009F042C0992740C0613005
:1001100019F0623019F03BC082E039C084E037C08A
:10012000F8948827483C11F022E0420F4093B40035
:10013000F89431D050D07894C9CFF89488274030C3
:1001400011F022E0421B4093B400F89424D043D035
:100150007894BCCF8827313081F0303009F0B6CFA9
:10016000F42E40E0F89417D03CD078944093B4003B
:100170004F2D20E020936B00A9CFF8940CD02BD00A
:1001800078944093B40023E020936B009FCF2F918D
:100190002FBF789418952D9810E018B9000043D01F
:1001A00016D111E018B900003ED011D110E018B9F5
:1001B000000039D00CD112E018B9000034D007D1BA
:1001C0002D9A85E0E4E4F0E021D032D083E0E0E64F
:1001D000F0E01CD008950BD089E0EAE4F0E016D0FE
:1001E000089505D089E0E6E5F0E010D008952D9857
:1001F0001CE018B9000017D0EAD0E9D010E018B917
:10020000000011D0E4D0E3D02D9A0895C89502944F
:1002100008B809D0DCD0029408B805D0D8D03196FF
:100220008A95A1F708952B9AD2D0D1D02B98089512
:10023000B42FC2E07ED0B43671F0D0E0D093060186
:10024000CAE077D0D0E3AD0FA093050172D0AD0F17
:10025000A09304010EC0D0E0D093030120E32093CB
:1002600002012093010121E320930001E0E0F1E08D
:1002700003C0E4E0F1E000C00190002039F00294F6
:1002800008B8D1DF029408B8CEDFF6CF089508E2AF
:1002900004B90FEF07B905E68FD013E018B9C3DF33
:1002A00005E08AD018B9BFDF01E086D018B9BBDFFE
:1002B00006E082D012E018B90000B5DF06E07CD07D
:1002C00012E018B90000AFDF82D081D018E018B971
:1002D0000000A9DF7CD07BD010E018B90000A3DFBC
:1002E00076D075D018E018B900009DDF70D06FD0BF
:1002F00010E018B9000097DF6AD069D011E018B992
:10030000000091DF64D063D010E018B900008BDFEB
:100310005ED016E018B9000086DF59D010E018B999
:10032000000081DF54D01CE018B900007CDF4FD002
:100330000895AA1BBB1FAA1FAC1B18F4AC0F88940E
:1003400001C00894BB1FAA1FAC1B18F4AC0F889403
:1003500001C00894BB1FAA1FAC1B18F4AC0F8894F3
:1003600001C00894BB1FAA1FAC1B18F4AC0F8894E3
:1003700001C00894BB1FAA1FAC1B18F4AC0F8894D3
:1003800001C00894BB1FAA1FAC1B18F4AC0F8894C3
:1003900001C00894BB1FAA1FAC1B18F4AC0F8894B3
:1003A00001C00894BB1FAA1FAC1B18F4AC0F8894A3
:1003B00001C00894BB1F089521E020936E000A95A8
:1003C00006D00030E1F720E020936E0008952F93CF
:1003D00026E026BD21E020936E00A89BFECF21E001
:0C03E00025BB20E020936E002F910895B3
:00000001FF
